:100000000C9446000C9465000C9465000C946500FB
:100010000C9465000C9465000C9465000C946500CC
:100020000C9465000C9465000C9465000C946500BC
:100030000C9465000C9465000C9465000C946500AC
:100040000C9465000C9465000C9465000C9465009C
:100050000C9465000C9465000C9465000C9465008C
:100060000C9465000C9465000C9465000C9465007C
:100070000C9465000C9465000C9465000C9465006C
:100080000C9465000C9465000C94650011241FBE4F
:10009000CFEFD0E1DEBFCDBF16E0A0E0B1E0E2E7F8
:1000A000F7E000E00BBF02C007900D92A630B10749
:1000B000D9F72AE0A6E0B6E001C01D92A630B2074B
:1000C000E1F70E9473030C94B7030C9400008FB9FE
:1000D000779BFECF0895CF93C82F8AEF0E946700C9
:1000E0008C2F807F0E9467008C2F8295807F0E94DA
:1000F000670082E48A95F1F700C0CF910895CF930D
:10010000C82F88EF0E9467008C2F807F0E946700B5
:100110008C2F8295807F0E94670082E48A95F1F798
:1001200000C0CF9108952FE788E391E021508040EF
:100130009040E1F700C0000080E20E947F008FEC59
:1001400097E00197F1F700C0000080E20E947F0075
:100150008FEC97E00197F1F700C000008CE00E945F
:100160007F008FEC97E00197F1F700C0000081E07D
:100170000E947F008FE19EE40197F1F700C000002C
:1001800086E00E947F0082E00C947F0080E20E9463
:100190007F008FEC97E00197F1F700C0000084E248
:1001A0000E947F008FEC97E00197F1F700C00000FC
:1001B00086E20E947F008FEC97E00197F1F700C084
:1001C00000000895CF93DF93C0E0C03230F48C2F4D
:1001D00080680E947F0080E806C080EE8C0F8068F7
:1001E0000E947F0088E80E947F00D8E080E00E94A3
:1001F0007F0080E00E947F00D150C1F7CF5FC03404
:1002000021F7DF91CF91089580E20E947F008FEC6B
:1002100097E00197F1F700C000000895FF920F9357
:100220001F93CF93DF938C01F12C8FE18F1530F06A
:100230008F2D80680E947F0080E806C080EE8F0DC1
:1002400080680E947F0088E80E947F00C0E0D0E0C4
:10025000F801EC0FFD1F80810E946B002196C031D8
:10026000D105B1F7F394005F1F4F80E4F812DDCFA2
:10027000DF91CF911F910F91FF90089501976150E9
:10028000710934E0660F771F3A95E1F7FC0197FD9D
:10029000379623E0F595E7952A95E1F7E60FF71FE6
:1002A000E40FF51F68E070E00E948F0320E830E063
:1002B00002C0359527958A95E2F78081822B80834D
:1002C0000895232B11F1019761507109B4E0660F75
:1002D000771FBA95E1F7FC0197FD3796A3E0F595F6
:1002E000E795AA95E1F7E60FF71FE40FF51F68E021
:1002F00070E00E948F0320E830E002C0359527951A
:100300008A95E2F78081822B808308952F923F9215
:100310004F925F926F927F928F929F92AF92BF9215
:10032000CF92DF92EF92FF920F931F93CF93DF93C1
:1003300000D000D000D0CDB7DEB77C017E836D83C6
:100340005A01290118018A01081B190B17FF03C064
:1003500011950195110962012D813E81C21AD30ABE
:10036000D7FE03C0D194C194D108EA14FB041CF455
:1003700021E030E002C02FEF3FEF3A8329838D81E7
:100380009E81841595051CF421E030E002C02FEF1A
:100390003FEF3C832B8338016C187D08A101B2012B
:1003A000C5010E943E01882499248C189D08EA14F6
:1003B000FB0401F1A1016D817E81C7010E943E0114
:1003C000C301880F991F8816990634F46C187D08AC
:1003D00029813A81E20EF31E8017910744F7600EDF
:1003E000711E8D819E812B813C81820F931F9E8384
:1003F0008D83DDCF8D819E8184159505D9F6269656
:100400000FB6F894DEBF0FBECDBFDF91CF911F9125
:100410000F91FF90EF90DF90CF90BF90AF909F90A3
:100420008F907F906F905F904F903F902F900895A6
:100430002F923F924F925F926F927F928F929F92F4
:10044000AF92BF92CF92DF92EF92FF920F931F93E2
:10045000CF93DF931C012B018A016901CC27DD2793
:10046000C41BD50BCC0FDD1F2196E12CF12C17FD01
:1004700051C0A6014201800E911EB40131016E0CE3
:100480007F1CC3010E943E01A6015201A01AB10ABD
:10049000B501C3010E943E01A601B40141018E18BD
:1004A0009F08C4010E943E01A601B501C4010E943B
:1004B0003E01D7FF0CC0CE01800F911F880F991FFE
:1004C0000297DCF48FEFE81AF80AC70110C01C1677
:1004D0001D069CF4CE018E199F09880F991F029763
:1004E00064F00150110988279927801B910B880F10
:1004F000991F0196C80FD91FBACF8FEFE81AF80AD3
:10050000C701801B910B880F991FC80FD91F01507D
:100510001109ADCFDF91CF911F910F91FF90EF9017
:10052000DF90CF90BF90AF909F908F907F906F9013
:100530005F904F903F902F9008958F929F92AF922F
:10054000BF92CF92DF92EF92FF920F931F93CF93C0
:10055000DF934C017B01EA0169019B010E94860146
:100560009601AE01B601C4010E9486019601A40164
:10057000B701C4010E9486019601AE01B701CE0108
:100580000E948601DF91CF911F910F91FF90EF9014
:10059000DF90CF90BF90AF909F908F9008954F9233
:1005A0005F926F927F928F929F92AF92BF92CF9203
:1005B000DF92EF92FF920F931F93CF93DF936B0124
:1005C000490125E0249FE001259FD00D1124E12C55
:1005D000F12C66246394712CC81BD90BC050DF4FDB
:1005E0002FEFC21AD20A08E010E05C01EFEFAE1A5A
:1005F000BE0A2E01480E591E9301002E02C0220F82
:10060000331F0A94E2F7F201808190E02823392316
:10061000B601600F711FA401C5010E946101015064
:10062000110950F72FEFE21AF20A85E0E816F104FB
:1006300011F0C501D8CFDF91CF911F910F91FF909D
:10064000EF90DF90CF90BF90AF909F908F907F9072
:100650006F905F904F900895AF92BF92CF92DF92CC
:10066000EF92FF920F931F93CF93DF93EC016B01F7
:100670008A0159017A01F80101900020E9F73197C8
:10068000E01BF10BC701801B910B8E179F07A8F48D
:10069000F70141917F01552747FD5095C937D10595
:1006A0002CF0F8E0CF0ED11CC1E0D0E09501B601EE
:1006B000CE010E94CF022696DECFDF91CF911F910F
:1006C0000F91FF90EF90DF90CF90BF90AF90089583
:1006D00087B38E6887BB88B38E6888BB80E58DB989
:1006E00081E08EB908950E9468030E9493000E94E1
:1006F000C600E6E0F6E011928AE0E630F807D9F7A6
:1007000026E036E04BEF55E061E070E081E090E0FC
:100710000E942C0386E096E00E940E01FFCF97FB1B
:10072000072E16F4009407D077FD09D00E94A3038A
:1007300007FC05D03EF4909581959F4F08957095E4
:1007400061957F4F0895AA1BBB1B51E107C0AA1FEB
:10075000BB1FA617B70710F0A61BB70B881F991F62
:100760005A95A9F780959095BC01CD010895F8940C
:02077000FFCFB9
:1007720000000000003E5B4F5B3E3E6B4F6B3E1C39
:100782003E7C3E1C183C7E3C181C577D571C1C5E50
:100792007F5E1C00183C1800FFE7C3E7FF00182427
:1007A2001800FFE7DBE7FF30483A060E26297929D1
:1007B20026407F050507407F05253F5A3CE73C5A06
:1007C2007F3E1C1C08081C1C3E7F14227F22145FE3
:1007D2005F005F5F06097F017F006689956A60603E
:1007E20060606094A2FFA29408047E040810207E38
:1007F200201008082A1C08081C2A08081E101010BD
:10080200100C1E0C1E0C30383E3830060E3E0E0602
:10081200000000000000005F000000070007001455
:100822007F147F14242A7F2A122313086462364914
:100832005620500008070300001C224100004122FC
:100842001C002A1C7F1C2A08083E08080080703001
:100852000008080808080000606000201008040270
:100862003E5149453E00427F400072494949462176
:1008720041494D331814127F1027454545393C4AEA
:100882004949314121110907364949493646494901
:10089200291E000014000000403400000008142249
:1008A20041141414141400412214080201590906B7
:1008B2003E415D594E7C1211127C7F494949363EB8
:1008C200414141227F4141413E7F494949417F099E
:1008D2000909013E414151737F0808087F00417FA9
:1008E20041002040413F017F081422417F404040A7
:1008F200407F021C027F7F0408107F3E4141413E3F
:100902007F090909063E4151215E7F0919294626C0
:100912004949493203017F01033F4040403F1F20C4
:1009220040201F3F4038403F63140814630304789B
:1009320004036159494D43007F41414102040810BB
:1009420020004141417F04020102044040404040F6
:10095200000307080020545478407F284444383864
:1009620044444428384444287F38545454180008D6
:100972007E090218A4A49C787F0804047800447DB0
:1009820040002040403D007F1028440000417F404D
:10099200007C047804787C080404783844444438A1
:1009A200FC1824241818242418FC7C080404084881
:1009B2005454542404043F44243C4040207C1C20D2
:1009C20040201C3C4030403C44281028444C90902D
:1009D200907C4464544C4400083641000000770087
:1009E20000004136080002010204023C2623263C94
:1009F2001EA1A161123A4040207A3854545559211F
:100A02005555794121545478412155547840205408
:100A12005579400C1E527212395555555939545454
:100A2200545939555454580000457C410002457DC3
:100A3200420001457C40F0292429F0F0282528F0C5
:100A42007C545545002054547C547C0A097F493219
:100A5200494949323248484832324A4848303A4194
:100A620041217A3A42402078009DA0A07D39444439
:100A720044393D4040403D3C24FF2424487E4943C4
:100A8200662B2FFC2F2BFF0929F620C0887E090335
:100A920020545479410000447D413048484A32385C
:100AA2004040227A007A0A0A727D0D19317D262988
:100AB200292F28262929292630484D402038080880
:100AC200080808080808382F10C8ACBA2F102834B4
:100AD200FA00007B000008142A142222142A1408A7
:100AE200AA005500AAAA55AA55AA000000FF0010A4
:100AF2001010FF00141414FF001010FF00FF10105C
:100B0200F010F0141414FC001414F700FF0000FF9E
:100B120000FF1414F404FC141417101F10101F10FB
:100B22001F1414141F00101010F0000000001F10FA
:100B32001010101F10101010F010000000FF101005
:100B420010101010101010FF10000000FF14000011
:100B5200FF00FF00001F10170000FC04F41414171C
:100B620010171414F404F40000FF00F71414141402
:100B7200141414F700F7141414171410101F101F74
:100B8200141414F4141010F010F000001F101F00C1
:100B920000001F14000000FC140000F010F0101000
:100BA200FF10FF141414FF141010101F0000000097
:100BB200F010FFFFFFFFFFF0F0F0F0F0FFFFFF008B
:100BC20000000000FFFF0F0F0F0F0F38444438449E
:100BD2007C2A2A3E147E02020606027E027E0263FE
:100BE200554941633844443C04407E201E2006029D
:100BF2007E020299A5E7A5991C2A492A1C4C72017A
:100C0200724C304A4D4D303048784830BC625A46BA
:100C12003D3E494949007E0101017E2A2A2A2A2AAB
:100C220044445F444440514A444040444A51400095
:100C320000FF0103E080FF000008086B6B0836121A
:100C4200362436060F090F0600001818000000109F
:100C520010003040FF0101001F01011E00191D1785
:100C620012003C3C3C3C0000000000313233343581
:060C72003637383930006E
:00000001FF
